:020000040800F2
:1000000000002720D5E0000805320008073200086C
:10001000093200080B3200080D32000825E1000803
:1000200000000000000000000000000061AB0008BC
:100030000F32000800000000F1AA000809C70008FC
:1000400025E1000825E1000825E1000825E1000878
:1000500025E1000825E1000825E1000825E1000868
:1000600025E1000825E1000825E1000825E1000858
:1000700025E1000825E1000825E1000825E1000848
:1000800025E1000825E1000825E1000811320008FB
:1000900025E1000825E1000825E1000825E1000828
:1000A00025E1000825E1000825E1000825E1000818
:1000B00025E1000825E1000825E1000825E1000808
:1000C00025E1000825E1000825E1000825E10008F8
:1000D00025E1000825E1000825E1000825E10008E8
:1000E00025E1000825E1000825E1000825E10008D8
:1000F00025E1000825E1000825E1000825E10008C8
:1001000025E100081932000825E1000825E1000872
:1001100025E1000825E1000825E1000825E10008A7
:1001200025E1000825E1000825E1000825E1000897
:1001300025E1000825E1000825E1000825E1000887
:1001400025E1000825E1000825E1000825E1000877
:1001500025E1000825E1000825E1000825E1000867
:1001600025E1000825E1000825E1000825E1000857
:1001700025E1000825E1000825E1000825E1000847
:1001800025E1000825E1000825E1000825E1000837
:1001900025E1000825E1000825E1000825E1000827
:1001A00025E1000825E1000825E1000825E1000817
:1001B00025E1000825E1000825E1000825E1000807
:1001C00025E1000825E1000825E1000825E10008F7
:1001D00025E1000825E1000825E1000825E10008E7
:1001E00025E1000825E1000825E1000825E10008D7
:1001F00025E1000825E1000825E1000825E10008C7
:1002000025E1000825E1000825E1000825E10008B6
:1002100025E1000825E100082532000825E1000855
:1002200025E1000825E1000825E1000825E1000896
:1002300025E1000825E1000825E1000825E1000886
:1002400025E1000825E1000825E1000825E1000876
:10025000313200083D32000825E10008493200082B
:0C0260005532000825E1000825E10008E7
:1002700010B5054C237833B9044B13B1044800E0A2
:1002800000BF0123237010BDB40200200000000055
:1002900014AA030808B5034B1BB10349034800E047
:1002A00000BF08BD00000000B802002014AA030827
:1002B00081F0004102E000BF83F0004330B54FEA17
:1002C00041044FEA430594EA050F08BF90EA020F84
:1002D0001FBF54EA000C55EA020C7FEA645C7FEA17
:1002E000655C00F0E2804FEA5454D4EB5555B8BF3A
:1002F0006D420CDD2C4480EA020281EA030382EAAB
:10030000000083EA010180EA020281EA0303362D3C
:1003100088BF30BD11F0004F4FEA01314FF4801C0F
:100320004CEA113102D0404261EB410113F0004F21
:100330004FEA03334CEA133302D0524263EB4303D8
:1003400094EA050F00F0A780A4F10104D5F1200E76
:100350000DDB02FA0EFC22FA05F2801841F10001D1
:1003600003FA0EF2801843FA05F359410EE0A5F1A5
:1003700020050EF1200E012A03FA0EFC28BF4CF0D6
:10038000020C43FA05F3C01851EBE37101F000458C
:1003900007D54FF0000EDCF1000C7EEB00006EEB99
:1003A0000101B1F5801F1BD3B1F5001F0CD3490823
:1003B0005FEA30004FEA3C0C04F101044FEA44527A
:1003C00012F5800F80F09A80BCF1004F08BF5FEA01
:1003D000500C50F1000041EB045141EA050130BDE1
:1003E0005FEA4C0C404141EB010111F4801FA4F184
:1003F0000104E9D191F0000F04BF01460020B1FAD9
:1004000081F308BF2033A3F10B03B3F120020CDA10
:100410000C3208DD02F1140CC2F10C0201FA0CF0EE
:1004200021FA02F10CE002F11402D8BFC2F1200C53
:1004300001FA02F120FA0CFCDCBF41EA0C01904009
:10044000E41AA2BF01EB0451294330BD6FEA040452
:100450001F3C1CDA0C340EDC04F11404C4F120023D
:1004600020FA04F001FA02F340EA030021FA04F34F
:1004700045EA030130BDC4F10C04C4F1200220FAA6
:1004800002F001FA04F340EA0300294630BD21FAE4
:1004900004F0294630BD94F0000F83F4801306BFAA
:1004A00081F480110134013D4EE77FEA645C18BF9E
:1004B0007FEA655C29D094EA050F08BF90EA020F35
:1004C00005D054EA000C04BF1946104630BD91EA2D
:1004D000030F1EBF0021002030BD5FEA545C05D130
:1004E0004000494128BF41F0004130BD14F580046F
:1004F0003CBF01F5801130BD01F0004545F0FE41E3
:1005000041F470014FF0000030BD7FEA645C1ABF17
:10051000194610467FEA655C1CBF0B46024650EA4E
:10052000013406BF52EA033591EA030F41F400217A
:1005300030BD00BF90F0000F04BF0021704730B500
:100540004FF4806404F132044FF000054FF00001D5
:1005500050E700BF90F0000F04BF0021704730B596
:100560004FF4806404F1320410F0004548BF40426B
:100570004FF000013EE700BF42004FEAE2014FEAC0
:1005800031014FEA02701FBF12F07F4393F07F4F9B
:1005900081F06051704732F07F4208BF704793F09E
:1005A0007F4F04BF41F40021704730B54FF46074B1
:1005B00001F0004521F000411CE700BF50EA0102B4
:1005C00008BF704730B54FF000050AE050EA01025D
:1005D00008BF704730B511F0004502D5404261EBCD
:1005E00041014FF4806404F132045FEA915C3FF40E
:1005F000D8AE4FF003025FEADC0C18BF03325FEAAB
:10060000DC0C18BF033202EBDC02C2F1200300FA5B
:1006100003FC20FA02F001FA03FE40EA0E0021FA80
:1006200002F11444BDE600BF70B54FF0FF0C4CF46E
:10063000E06C1CEA11541DBF1CEA135594EA0C0F20
:1006400095EA0C0F00F0DEF82C4481EA030621EA5B
:100650004C5123EA4C5350EA013518BF52EA033596
:1006600041F4801143F4801338D0A0FB02CE4FF048
:100670000005E1FB02E506F00042E0FB03E54FF078
:100680000006E1FB03569CF0000F18BF4EF0010E70
:10069000A4F1FF04B6F5007F64F5407404D25FEA6C
:1006A0004E0E6D4146EB060642EAC62141EA55511F
:1006B0004FEAC52040EA5E504FEACE2EB4F1FD0C61
:1006C00088BFBCF5E06F1ED8BEF1004F08BF5FEADF
:1006D000500E50F1000041EB045170BD06F0004691
:1006E00046EA010140EA020081EA0301B4EB5C043E
:1006F000C2BFD4EB0C0541EA045170BD41F4801136
:100700004FF0000E013C00F3AB8014F1360FDEBF5A
:10071000002001F0004170BDC4F10004203C35DA36
:100720000C341BDC04F11404C4F1200500FA05F3B9
:1007300020FA04F001FA05F240EA020001F000425A
:1007400021F0004110EBD37021FA04F642EB0601D0
:100750005EEA430E08BF20EAD37070BDC4F10C04FA
:10076000C4F1200500FA04F320FA05F001FA04F2BE
:1007700040EA020001F0004110EBD37041F10001AA
:100780005EEA430E08BF20EAD37070BDC4F12005B5
:1007900000FA05F24EEA020E20FA04F301FA05F21D
:1007A00043EA020321FA04F001F0004121FA04F2C5
:1007B00020EA020000EBD3705EEA430E08BF20EA95
:1007C000D37070BD94F0000F0FD101F000464000CF
:1007D00041EB010111F4801F08BF013CF7D041EA51
:1007E000060195F0000F18BF704703F00046520055
:1007F00043EB030313F4801F08BF013DF7D043EA26
:100800000603704794EA0C0F0CEA135518BF95EADB
:100810000C0F0CD050EA410618BF52EA4306D1D162
:1008200081EA030101F000414FF0000070BD50EA81
:10083000410606BF1046194652EA430619D094EA0B
:100840000C0F02D150EA013613D195EA0C0F05D1F5
:1008500052EA03361CBF104619460AD181EA030149
:1008600001F0004141F0FE4141F470014FF0000001
:1008700070BD41F0FE4141F4780170BD70B54FF09C
:10088000FF0C4CF4E06C1CEA11541DBF1CEA13551C
:1008900094EA0C0F95EA0C0F00F0A7F8A4EB0504FE
:1008A00081EA030E52EA03354FEA013100F08880F5
:1008B0004FEA03334FF0805545EA131343EA1263BE
:1008C0004FEA022245EA111545EA10654FEA002673
:1008D0000EF000419D4208BF964244F1FD0404F52C
:1008E000407402D25B084FEA3202B61A65EB030588
:1008F0005B084FEA32024FF480104FF4002CB6EB45
:10090000020E75EB030E22BFB61A754640EA0C00C4
:100910005B084FEA3202B6EB020E75EB030E22BF04
:10092000B61A754640EA5C005B084FEA3202B6EB45
:10093000020E75EB030E22BFB61A754640EA9C0004
:100940005B084FEA3202B6EB020E75EB030E22BFD4
:10095000B61A754640EADC0055EA060E18D04FEA92
:10096000051545EA16754FEA06164FEAC30343EA32
:1009700052734FEAC2025FEA1C1CC0D111F4801FFF
:100980000BD141EA00014FF000004FF0004CB6E7F8
:1009900011F4801F04BF01430020B4F1FD0C88BF97
:1009A000BCF5E06F3FF6AFAEB5EB030C04BFB6EBA2
:1009B000020C5FEA500C50F1000041EB045170BD95
:1009C0000EF0004E4EEA113114EB5C04C2BFD4EBC2
:1009D0000C0541EA045170BD41F480114FF0000E46
:1009E000013C90E645EA060E8DE60CEA135594EAC2
:1009F0000C0F08BF95EA0C0F3FF43BAF94EA0C0FC5
:100A00000AD150EA01347FF434AF95EA0C0F7FF439
:100A100025AF104619462CE795EA0C0F06D152EA8D
:100A200003353FF4FDAE1046194622E750EA410671
:100A300018BF52EA43067FF4C5AE50EA41047FF482
:100A40000DAF52EA43057FF4EBAE12E74FEA4102E5
:100A5000B2F1E04324BFB3F5001CDCF1FE5C0DD91C
:100A600001F0004C4FEAC0024CEA5070B2F1004F66
:100A700040EB830008BF20F00100704711F0804F69
:100A800021D113F13872BCBF01F00040704741F42E
:100A900080114FEA5252C2F11802C2F1200C10FA32
:100AA0000CF320FA02F018BF40F001004FEAC12316
:100AB0004FEAD32303FA0CFC40EA0C0023FA02F3BA
:100AC0004FEA4303CCE77FEA625307D150EA013390
:100AD0001EBF4FF0FE4040F44000704701F0004060
:100AE00040F0FE4040F40000704700BF70470438FB
:100AF0007047704710B50446102137F02BFB204695
:100B000010BDA0F10400F5E7002210B58260044A90
:100B1000C16002F1080420320460426010BD00BFD1
:100B200020AC0308704770477047704710B5044603
:100B3000024B036000F0D1F8204610BD50AC030812
:100B400010B50446FFF7F2FF2046F82137F002FB0C
:100B5000204610BD10B5044600F048F9014B204670
:100B6000236010BD50AC030800F0B8B8002202604A
:100B700070477047704700F598730868496803C369
:100B80007047704700F094BA10B504464FF4AE7148
:100B900037F0E0FA204610BD10B50446D0F85801F1
:100BA000FFF7E7FF2046BDE8104010F041BC10B54C
:100BB0000446D0F8400158B10368DB68984738B163
:100BC000D4F8400103689B6898470023C4F840317B
:100BD00010BD000010B5044600F03AFA014B204663
:100BE000236010BD84AC030890F8252012B103687F
:100BF0005B69184770470020704781807047C1804B
:100C00007047018170474181704770477047704756
:100C100070477047C38810B4D21A838812B2C91AB9
:100C2000036809B25B6D5DF8044B18474FF6FF731C
:100C300083814FF0FF3303621368C3611060704714
:100C400090F825201AB190F8242002B1186070475E
:100C500070477047704730B585B06D4603680181B5
:100C600004460146D3F884302846984795E80700A3
:100C70003C3484E8070005B030BD30B585B06D4622
:100C80000368418104460146D3F8843028469847DA
:100C900095E807003C3484E8070005B030BD002229
:100CA000028042808280C280704780F83610704790
:100CB00070B50446154603681B6B984723682946A0
:100CC0002046BDE870405B6E18470020704708B5AD
:100CD000FFF78AFF08BD806C704770477047704708
:100CE00010B50446082137F035FA204610BD10B57E
:100CF00004464C2137F02EFA204610BD10B50446AC
:100D0000F82137F027FA204610BD000070B50368BF
:100D100004465E6B114B8DB21B682BB96C21104BD6
:100D2000104A114838F0E4FD1049828D098891423B
:100D300003D80F4B0B4A6D21F3E713F812200D4B2C
:100D40001B6853F8220003681B6B9847291A334627
:100D50002046BDE8704009B2184700BFE8D0042023
:100D600073AD030868AE0308B5AD0308ECD00420EA
:100D7000F6AD0308F0D0042000224FF0FF3182606E
:100D8000C0E90021704700000A4A02600022828008
:100D9000C280028142818281C28102824282C0E994
:100DA0000522C2610284428480F82420012280F856
:100DB00025207047F4C0030870B504461546036843
:100DC0001B6B9847236829462046BDE870405B6B43
:100DD000184770B50446154603689B6B984723680F
:100DE00029462046BDE87040DB6B18472DE9F04FDF
:100DF000044600252746FF264FF6FF7A87B012F0FB
:100E0000DBF8624BE56347F8403B2622294638462B
:100E100038F0F7FD3846FFF7B7FF5D4B04F16C087B
:100E200026222364294684F86660A5664046ADF80C
:100E300010A038F0E6FD4046FFF7A6FF554B0DF138
:100E40001809E36639F8083D84F89460A4F89230F4
:100E500004F19806494640460EF00BFD262229462D
:100E6000304638F0CEFD3046FFF78EFF4FF47F035B
:100E7000DFF84CB1C4F8CC30474B3846C4F8983052
:100E8000A4F8C4A0A4F8D8A0A4F8DAA02A46294659
:100E9000C4F8C0B0C4F8C85084F8D05084F8D15019
:100EA000A4F8D450A4F8D650C4F8DC50C4F8E050EC
:100EB000FFF782FF4FF4F07238461146FFF789FFC3
:100EC0004FF07F4339466F4604F1040AA36650464B
:100ED0000DF062F92A4629464046FFF76DFF494664
:100EE0004046ADF810500EF0C4FC414650460DF09F
:100EF00053F9D7228C213046FFF75EFF3222C821FA
:100F00003046FFF766FF254BA4F8CC50C4F8C83034
:100F1000D4F898303846D3F884303146984797E86B
:100F2000070004F1D40383E807001D4B04F1E40734
:100F30001B682BB960211B4B1B4A1C4838F0D8FC9E
:100F40001B4B1B881BB91B4B174A6121F5E71A4B3A
:100F50002946186800F082FB184A03460A213846E1
:100F600013F091FC012349463046C4F8E070ADF817
:100F70001430CDF810B00EF0B5FB504631460DF0F0
:100F80000BF9204607B0BDE8F08F00BF3CAE030868
:100F9000CCBF030834C00308E8AC03080AF038FFEC
:100FA000E8D0042073AD0308A3AE0308B5AD030871
:100FB000ECD00420F6AD0308F4D0042070AD030893
:100FC000D8AC03087047704770474160704770475E
:100FD00001230372704770477047034610B4C4681A
:100FE00041686210E40701EB02009B6848BF8A5821
:100FF0005DF8044B48BFD358184743682BB183684A
:101000002BB9C06800F001007047184670470120F6
:10101000704710B504460C2137F09CF8204610BDEF
:1010200010B504464FF4AE7137F094F8204610BD69
:1010300010B50446102137F08DF8204610BD10B5CC
:1010400010F074F9BDE810400368DB6B184700002E
:10105000F8B50446002517460E4610F029FA104B45
:10106000C4F83C511C600F4BC4F8405123600E4B38
:10107000C4F84851C4F844310C4BC4F84C511868BA
:10108000C4F85051C4F85471C4F858610368294633
:101090009B689847284600F0A7FA2046F8BD00BF95
:1010A000E4D00420FCAE0308E4AE030898D004208A
:1010B000064BC0F84801C0F84C310023C0F850314D
:1010C00000F5A273C0F84031704700BF111200084C
:1010D0002DE9F047074690689946036888461B6AE1
:1010E0001546DDF820A09847F72805D8A321424BE4
:1010F000424A434838F0FCFB686803681B6A98471B
:101100000F2803D83F4B3D4AA421F2E7E868036863
:101110001B6A98470B2803D83B4B384AA521E8E7C0
:1011200010F004F9043010F026F9D9F8000010B1DD
:101130000368DB689847D9F8000010B103681B68A2
:101140009847386810B103685B699847D8F8000081
:1011500010B103685B689847386810B103681B6872
:101160009847D8F8000010B103689B689847E86872
:10117000002103685B6A9847044620B1002343605E
:101180000372224B0360A868002103685B6A9847DA
:10119000064608B1FFF7DEFC6868002103685B6A59
:1011A0009847054610B13146FFF7AEFCC9F800403C
:1011B000C8F800503E60E5B12B1DCAF80030C5F8F4
:1011C00008A03368F5633046DB6898472B682846EB
:1011D0001B6898472146304612F09AF8236820464B
:1011E0001B699847236820465B6998472846BDE8F5
:1011F000F0872B46E1E700BF6CAF030881B103081D
:10120000FAAF03083BB00308DEB0030850AF030891
:1012100007B5D0F8583100F59E710093D0F85421ED
:10122000034B0448FFF754FF03B05DF804FB00BF15
:10123000D8D00420D4D0042013B5002249B102AB89
:10124000019203F8052D0268946801AAA04702B034
:1012500010BD0846FBE7C0897047008A7047C08808
:10126000704780887047807A00F07F007047807AEE
:10127000C0097047002070479FED010A704700BF0A
:1012800000000000406A7047806A704770478B8892
:10129000C069DB0A0A6850F823001044704710B593
:1012A000C2B1137BB3B1547BD27A240204F4E0645C
:1012B0001443026A98B202EB840213888B4202D173
:1012C00092F9020010BD05D8013880B2043200281E
:1012D000F3D1F7E70020F5E710B504462C2136F0EE
:1012E00039FF204610BD000030B504468BB0BDF874
:1012F00060500895BDF85C5007959DF850500695D4
:101300009DF84C5005959DF8485004959DF8445023
:1013100003959DF8405002959DF83C500195BDF80D
:101320003850009511F04EFC2046064B2360159B6B
:10133000E361169B2362199B63621A9BA3620BB045
:1013400030BD00BF90B203087047000030B5124DA9
:101350008FB02B6813F001031BD13F2209920F4A73
:10136000012408920E4ACDE90B33CDE906320A93E7
:1013700005930422CDE901330A23CDE90324009328
:10138000224608490848FFF7AFFF08482C6038F0AC
:10139000CDFA05480FB030BDD002002028F0030878
:1013A00024F00308BCEF0308D4020020491300080E
:1013B00010B5002404600C6014601C6010BD704700
:1013C00030B5134C8FB0236813F001031CD13F22BA
:1013D0000992104ACDE90B3308920F4A0A93CDE9DE
:1013E0000632059304220125CDE901332823CDE9F6
:1013F000032500930322292308490948FFF774FFB6
:101400000848256038F092FA05480FB030BD00BF9B
:101410000003002020F0030830F00308E4EF030885
:1014200004030020BF1300087047000030B5124DC0
:101430008FB02B6813F001031BD13F2209920F4A92
:10144000012408920E4ACDE90B33CDE906320A9306
:1014500005930422CDE901331423CDE9032400933D
:10146000224608490848FFF73FFF08482C6038F03B
:101470005DFA05480FB030BD300300202CF00308A2
:1014800034F0030810F00308340300202914000886
:10149000704710B50446042136F05CFE204610BDAE
:1014A000012908B508D003D3022909D0002002E0A1
:1014B00000F012F8006808BD00F00EF84068FAE786
:1014C00000F00AF88068F6E70048704704B30308A4
:1014D00001207047022070470048704760030020D9
:1014E00010B5FFF7A3FF044C2060FFF769FF6060B1
:1014F000FFF72CFFA06010BD6003002000207047A4
:10150000002070470EB403B503AB53F8042B002141
:10151000019310F057FE02B05DF804EB03B0704782
:101520000CB407B504AB53F8042B019310F04AFE3A
:1015300003B05DF804EB02B07047000010B5436CD7
:10154000044673B3038F2BB9C521184B184A1948A9
:1015500038F0CEF9C38E00EB43035B8C0BB312F073
:10156000EAFB238F012B03D8134B144ACB21EEE760
:10157000E28E40F63F10531C9BB21946092B88BFE0
:10158000A3F10A0104EB4101498C814209D10A2BE4
:1015900028BF002304EB4202508C04EB4303588421
:1015A00051842046BDE8104012F0C8BA18B30308B1
:1015B00045B4030821B3030865B3030873B30308F4
:1015C00012F083BA10B586B002AC84E806001A4661
:1015D0000AAB05930193099B21460093089B0FF0EA
:1015E00043FA06B010BD000038B5D8B9114B124807
:1015F0001B681249BBB11A689C681A4402605A6899
:101600001C441A440A606CB100220D4B1A80FFF78B
:1016100063FF0546FFF75EFF0A4B1C600A4B1D6027
:101620000A4B188038BD0A4B03600A4B0B600A4B0B
:101630001C68E8E76C03002070030020740300209E
:1016400078030020E8D00420F0D00420ECD004205F
:1016500048F0030838F0030844F00308044B1B6803
:1016600053F82100034B1B6803EB4000704700BF99
:101670007403002070030020012380F8781080F8A4
:1016800079307047002070474164003118BF012154
:10169000014B1970704700BF97D00420002070479D
:1016A000836B0BB10846184770474FF6FF707047C1
:1016B000406803689B69184770477047704700008F
:1016C0009022044B83F8762383F8872383F88423BE
:1016D000704700BF00E100E0094A0A49D3680A48A0
:1016E000C3F30A03013B9BB20B801169C1F30A01EA
:1016F000013901801364536B43F001035363704756
:10170000006801408203002080030020014B986A9A
:10171000704700BF846801400122024B996243F880
:10172000602C70478468014070B504464FF4005146
:1017300013F0AEFC23685D6E0FF0F8FD0146204605
:10174000A84723682046D3F88850034AAC46BDE832
:101750007040002301496047A0800F20A0F40420BE
:1017600010B531B90A4B0B4A40F2D2210A4838F081
:10177000BFF8C0E90F12003218BF012207490A70F2
:1017800002681946BDE81040D2F88C20104700BF0F
:1017900053B503080DB603088BB5030896D0042093
:1017A00008B5094B1B888B4203D8084B1B88934212
:1017B00005D9074B074A9E21074838F099F8074B8F
:1017C0001980074B1A8008BD8CD004208ED00420CD
:1017D000F0B40308CAB503088BB5030892D00420FF
:1017E00094D0042013F07EBB13F0A8BB0CF06CBFA8
:1017F0000DF0DBB810B504460DF00EFD2368204651
:10180000BDE81040D3F8AC30184790F87A301BB1DF
:10181000406803681B6818471846704710B590F871
:10182000784090F834100C4B8C421A7809D03AB9B1
:101830000A490B4A08881488108001220C801A700B
:1018400010BD002AFCD0064A0449148808880C8080
:1018500010800022F3E700BF90D004208ED0042037
:101860008CD004204FF48002034BDA6080221A618E
:1018700010221A61704700BF00E100E04FF48002BF
:101880000A4BC3F88C20BFF34F8FBFF36F8F8022BA
:10189000C3F89020BFF34F8FBFF36F8F1022C3F8B0
:1018A0009020BFF34F8FBFF36F8F704700E100E0D0
:1018B00008B5054B1A68D20704D4012203481A6000
:1018C00038F034F8024808BD7C030020BD1600083B
:1018D0000400002010B5144C236823B3134B144AA2
:1018E0001B6C11888B4213D1124B198806F09CFA9D
:1018F000226892F86A30013382F86A3000F0F6F913
:1019000020680DF089FCBDE81040002000F08ABC82
:1019100006F08AFA206803681B6A9847BDE8104001
:10192000002000F09BBC10BD98D00420006801404E
:10193000820300208003002003685B6C18470120AD
:10194000704703689B6A18470F4B82B0D3F8882012
:1019500042F48022C3F88820D3F8882002F4802241
:101960000192019A1A6E42F480221A661A6E22F4CB
:1019700080221A66054B064A1A624FF48002054B14
:10198000DA6002B0704700BF000C0246A4DA0420FF
:10199000A119000800E100E040F2EF3070470000BC
:1019A000024B1B68586803685B69184798D004208D
:1019B00008B50B280BD8DFE800F01206100A0A0A57
:1019C0000A0808080808012008BD0520FCE7054BA7
:1019D000054A6521054837F08BFF0020F4E7022017
:1019E000F2E700BF75B6030846B7030890B60308D0
:1019F00008B50A2809D8DFE800F010060E08080824
:101A0000080606060600012008BD054B054A86218A
:101A1000054837F06DFF0020F6E70220F4E700BF2D
:101A200075B6030890B7030890B60308F8B50C46DE
:101A3000487FFFF7BDFFA77F05463846FFF7B8FF91
:101A400006463846FFF7D4FFA38A628BD21A464B6C
:101A50001A64A18A628B521A9A61A18A228B521A45
:101A60001A615863A18AE28A42EA01425A642269F1
:101A7000DA636268DA602268207F402A6BD00FD870
:101A8000042A62D0202A66D045EA0060364B40F432
:101A90000030D861617FA27F914262D0334A41E039
:101AA000B2F5807F1AD0B2F5007F21D0802AEBD129
:101AB00045EA006040F40030A768D8615E622269A0
:101AC0005A613A1DDA623A78A2B1012A2CD0284B29
:101AD000284A4FF48071284837F00AFF274A42EA23
:101AE0000060D861E2681A625E6222695A6118E099
:101AF000234AF4E7D9697A88501E21F47F420121F4
:101B000022F0100242EA0022DA61174BDA6942F051
:101B10002002DA61DA699206FCD410229A60002968
:101B2000BCD0184A1A60F8BDDA69788822F47F427E
:101B3000217F22F01002013842F01002FF3942EA00
:101B4000002218BF0121DA61DFE745EA006040F4B6
:101B50000030D861C8E745EA006040F40030024B2D
:101B6000F7E740F20122DDE700B002400102010088
:101B70005BB6030808B7030890B603080A00020022
:101B8000090002000102020010B5887F0C46FFF731
:101B90002FFF174B5863A18AE28A42EA01425A6436
:101BA0002269DA63628BA18A521A1A642268082AAF
:101BB00016D1A18A628B521A9A61A18A628B521A3B
:101BC0001A615862217F0B4A42EA0162DA61E268D7
:101BD0001A6222695A612269DA60074A1A6010BDE6
:101BE0000022D8611A61E2689A63044AF6E700BFEE
:101BF00000B00240090001000102020001020300DE
:101C00004FF48002044B0360044BC3F88C20BFF3F5
:101C10004F8FBFF36F8F7047C0B6030800E100E03D
:101C200010B50446FFF7ECFF20464FF45A6136F03A
:101C300091FA204610BD000070B5054600262C46DE
:101C4000094B0C3068602E726E7244F8203B6022A3
:101C500021460DF039FC05F55A63E6602434A342B1
:101C6000FBD1284670BD00BFC0B60308012108B5EE
:101C7000002208460AF0E7FD0A4B186028B928211F
:101C8000094B0A4A0A4837F033FE0022042101209A
:101C90000AF080FE074B186018B9074B034A2C2145
:101CA000F0E708BD88030020DBB703088FB80308FE
:101CB00024B80308840300204DB80308024B4FF0FA
:101CC000FF3118680AF00EBE88030020014B186827
:101CD0000AF036BE88030020024B002118680AF083
:101CE00001BE00BF88030020FFF7F0BF00230348B8
:101CF0001A46034900680AF08DBE00BF8403002025
:101D000008000020002313B5074C1A4601A92068DB
:101D10000AF0B4FE4FF0FF33002201A920680AF058
:101D2000ADFE02B010BD00BF84030020012070474B
:101D30000C2070470C2303FB0100083070470C2374
:101D400003FB01000830704701207047F8207047FE
:101D5000F82303FB010008307047F82303FB010060
:101D600008307047012070471020704700EB0110C9
:101D70000830704700EB0110083070470846FFF745
:101D800097B9000010B50446024B03600CF0EEF961
:101D9000204610BD30B9030810B50446FFF7F2FF26
:101DA0002046142136F0D6F9204610BD10B5044661
:101DB000024B03600CF0DAF9204610BDFCB80308B2
:101DC00010B50446FFF7F2FF20464FF4807136F05D
:101DD000C1F9204610BD000010B50446024B036057
:101DE0000CF0C4F9204610BDC8B8030810B504466D
:101DF000FFF7F2FF2046182136F0ACF9204610BD5F
:101E000010B50446074B036000F59670FFF7BAFF64
:101E100004F12C00FFF7CAFF04F11400FFF7DCFF08
:101E2000204610BD64B9030808B50248FFF7E8FF73
:101E300008BD00BF9003002010B50446FFF7E0FF87
:101E400020464FF4287136F085F9204610BD000079
:101E50002DE9F341FFF738FB00240546FFF738FB77
:101E60002346014622460094284612F0B1FD254B38
:101E7000254A2046254C1A60FFF7B6FB0121204673
:101E800017F09AFA224B234EA360234812F008FD64
:101E90003368DB0730D4214C214B04F5A27504F1E3
:101EA000140004F12C0804F596776060C4F80880EB
:101EB000E760256123600CF05BF91A4B40466361D3
:101EC0000CF056F9184B3846E3620CF051F9174BF9
:101ED00004F5A070C4F82C31FEF748FE224604F544
:101EE000A0712846FEF776FE2846FFF7E1F80123A9
:101EF0000F48336037F01AFD0E4802B0BDE8F041DC
:101F000000F098B8F4D00420A4140020A8140020F5
:101F1000300600208C0300200C00002090030020DD
:101F200064B90308C8B80308FCB8030830B903084B
:101F3000291E0008F013002008B524F0EBFC4FF434
:101F4000F071012208462FF007FBBDE8084001218F
:101F5000084633F0B1B8000001480CF018BC00BFCF
:101F6000F0130020F7B5124D124B134F134E2846B5
:101F70003B60FFF761FE304617F010FA104810F092
:101F800001FB4FF4F0730F4CCDE9003332463B4672
:101F90002946204613F014F80B4B23600023C4F8A5
:101FA000AC30C4F8B030094BC4F8A83003B0F0BD71
:101FB0005006002004BB03084C060020A814002093
:101FC00030060020F013002094B903084CBB03082E
:101FD0000148FFF715BE00BF50060020704770474C
:101FE0000023037100F0C0B970B504460E4605F039
:101FF00095FF0B4D2B68C01AB0F5487F04D905F04A
:102000008DFF00232860237100F0B0F9C0B230705A
:1020100028B12379834216BF20710020012070BDB2
:10202000F81C002010B50446082136F093F820462D
:1020300010BD704738B50446FFF776FB074B04F137
:10204000A80563610023284684F84A3000F0A0F90F
:102050000123256184F8703038BD00BF001D0020C9
:10206000FFF754BB37B50025104C00952368D3F813
:10207000042422F00802C3F80424D3F8043403F043
:1020800008030093009BFFF747FB23680195D3F8F3
:10209000042442F00802C3F80424D3F8043403F003
:1020A00008030193019B03B030BD00BF20D9042079
:1020B000FFF79CBBFFF79CBB08B5FFF701FB902225
:1020C000014B83F8892308BD00E100E008B5FFF764
:1020D000C9FB4FF40072014B1A6108BD00E100E03A
:1020E000FFF7FABAFFF77EBB37B50D4B05461978F7
:1020F00079B901220B4C1A700B4829231522009143
:1021000008F08DF90421204605F0C2FCC82223689E
:102110009A63284603B0BDE83040FFF765BB00BFB7
:10212000FC1C002054D8042020D904200CF0C6BA8E
:1021300010B50446B42136F00DF8204610BD00005D
:1021400008B5FFF79BFB4FF40072044BC3F89020D7
:10215000BFF34F8FBFF36F8F08BD00BF00E100E0FA
:1021600073B50D4631B91C4B1C4A40F2D2211C48B4
:1021700037F0BEFBC0E90F12003218BF0122002465
:102180001849194E0A7002681946D2F88C209047F7
:1021900033680094D3F80424294622F00802C3F8D7
:1021A0000424D3F80434224603F0080300930F48B4
:1021B000009B05F019FE33680194D3F8042442F023
:1021C0000802C3F80424D3F8043403F0080301938D
:1021D000019B02B070BD00BF53B5030864BA030889
:1021E0008BB5030896D0042020D9042070D9042090
:1021F00008B5054B01461B6800B1012118460DF0DA
:1022000025F8012008BD00BF98D004200248034BE8
:102210000360FFF7E5BE00BF001D002078B903088A
:1022200070470000032814D8DFE800F002070A0F07
:1022300001220221074804F0BFB801221146F9E744
:1022400001224FF480410448F5E701224FF4805108
:10225000F9E77047000C024200140242032814D828
:10226000DFE800F002070A0F00220221074804F00D
:10227000A3B800220121F9E700224FF4804104486D
:10228000F5E700224FF48051F9E77047000C024255
:1022900000140242032810D8DFE800F00206080C00
:1022A0000221064804F08DB80121FAE74FF480417D
:1022B0000348F7E74FF48051FAE77047000C0242F9
:1022C00000140242704710B50446042135F042FF65
:1022D000204610BD10B5064B187830B1054B1C6870
:1022E00024B15C680C609B68136010BD2046FCE75D
:1022F000081D00200C1D00201FB5094C207868B96E
:10230000084B69461B8803900093074B1B88CDE957
:1023100001300BF023FE08B90123237004B010BD77
:10232000081D00208CD004208ED00420B0F5807FC2
:1023300008B50DD1074B1B7853B1074900200BF0AE
:102340007DFE28B1054B064A3B21064837F0D0FAFE
:1023500008BD00BF081D00200C1D0020B2BA0308F4
:1023600014BB0308D1BA03087047000008B54FF446
:102370000051044804F01AF801280CBF3520002051
:1023800008BD00BF000802424068704741607047C6
:10239000094A136843F080731360A2F54E424C3A29
:1023A0001168064B0B431360A2F57B62136843F080
:1023B00001031360704700BFFCED00E055CEACC5D3
:1023C000521A02EB5302B2FBF3F07047014B18684C
:1023D000704700BF041000E0704710B504460C21A0
:1023E00035F0B8FE204610BD10B5036804461B69E1
:1023F00031B19847A26863689B1A1844606010BDA9
:102400009847A060FBE7000001220E48D0F8883012
:1024100043F47003C0F888300B4B1A600022DA6175
:102420001A625A62196821F0A85121F4102119602A
:102430009A62196821F4802119601A654FF00063CF
:102440008360704700ED00E0000C024608B50120F3
:102450000AF0EAF9FBE700000149002009F03CBD61
:10246000F121000808B5074A002107480AF090F951
:10247000064B074A1860002106480AF089F9064B06
:10248000186008BDE8BB03084D24000894D7042059
:10249000C4BB030853AA000898D7042070B51F4B8B
:1024A00088B0D3F89C20694642F01002C3F89C2003
:1024B000D3F89C30064603F01003019302A8184C91
:1024C000019B02F02FF801F0FDFF164B236040F254
:1024D000E733E360144BB0FBF3F000230138606096
:1024E00020462361A36004F0EBFF054668B920464F
:1024F00004F000FE054640B90F2E0CD802463146C6
:10250000312003F093FC094B1E60312003F0C2FC24
:10251000284608B070BD0125F7E700BF000C024651
:102520009CD704200010004040420F0018000020FB
:102530002DE9F0410025E8B0012220215F4803F099
:102540003BFF052005F0F0FC002220215B4803F052
:1025500033FF0B2005F0E8FC242229460CA8CDE926
:10256000045537F04EFA182229460DEB020037F0D9
:1025700048FA29466C2215A837F043FA504C514BC3
:102580000426C4E9003508230127C4E904354FF0C7
:1025900002087D2369462046C4E90267CDE900367A
:1025A000CDE9028707F0BCFB08B172B6FEE7CDE9C2
:1025B0000C70CDE90E00CDE91000CDE912001490A9
:1025C0000CA9204607F08CFE08B172B6FEE728235E
:1025D0004FF00B0E0C25CDE906E31723CDE9085388
:1025E00007230A9006A920460B9307F01BFE08B1AB
:1025F00072B6FEE73146204607F000FE014608B1FC
:1026000072B6FEE7204607F013FB08B172B6FEE78C
:102610000523CDE916304FF4F0730622CDE91930C9
:10262000032340F2AC51CDE91F2314232395CDE9B8
:102630002113C82540F2E113CDE9245340234FF480
:1026400000454FF40056CDE926534FF480534FF424
:102650000067CDE929634FF480634FF4007CCDE936
:102660002B734FF48073CDE92DC34FF48043CDE934
:102670001B00CDE91D00289015A92046CDF86080EB
:102680002F9307F089FC014608B172B6FEE7204699
:1026900007F06BFC08B172B6FEE7204607F098FE23
:1026A00008B172B6FEE70022042330A8CDE930233A
:1026B000669505F023FD68B0BDE8F0810020024278
:1026C00020D90420006C0140F0B5E5B0342200218F
:1026D00057A837F096F94FF00043B34CB34A0125A1
:1026E000C4E9002313220220C4E905521F224FF43B
:1026F000F176C4E907024FF4007200234FF08041E5
:10270000C4E9096240F2E3174FF43272C4E90213DC
:10271000C4E90B722361A38684F83630204605F0A5
:102720005DFA024608B172B6FEE740F2E1115A9135
:10273000FF215C914FF4C0615E9107214FF4F0736B
:1027400057905D905F916090ADF88C018DF88E018F
:1027500057A92046589359955B956193629305F06C
:102760001AFB064608B172B6FEE70A2005F0DCFB4C
:102770008F4807F0C5FE0A2005F0D6FB324620211F
:102780008C4803F019FE0A2005F0CEFB2A462021D2
:10279000884803F011FE962005F0C6FB844807F038
:1027A0004DFF0A2005F0C0FB02AB0193B923824C18
:1027B00000932188A278ADF808108DF80A20032331
:1027C000392231467A4807F03BFE08B172B6FEE77F
:1027D0000BAFE31C13343E46254632461868596851
:1027E000083303C2A3421646F7D1B12301970093E1
:1027F0003922102300216E4807F022FE044608B15A
:1028000072B6FEE705AA13462868696803C3297AE9
:1028100067481970B2230192009339220923214697
:1028200007F00EFE054608B172B6FEE708AA134689
:10283000624C2068616803C321895D481980B42314
:102840000192009329460A23392207F0F9FD014637
:1028500008B172B6FEE704AB4FF040420193C723C4
:102860000492009339220423514807F0E9FD014600
:1028700008B172B6FEE70223152200934C48CC2320
:1028800007F0CDFD014608B172B6FEE777231522A9
:1028900000934748D22307F0C2FD08B172B6FEE7A5
:1028A00021AE324604F10A032A34154618685968E5
:1028B000083303C5A3422A46F7D118681B7928605C
:1028C0002B71D32301960093392225230021384808
:1028D00007F0B6FD08B172B6FEE70FAD2A46384BD9
:1028E00003F12006144618685968083303C4B3423C
:1028F0002246F7D11B8839222380D52301950093E6
:10290000002122232A4807F09BFD054608B172B634
:10291000FEE701460D220DF1760037F072F84FF018
:10292000183318ACC4E9003303F20113C4E90233CD
:10293000244B1822236140F20233A3820123E37562
:10294000202323762123637622232277A3766277BE
:10295000A277E2772323D622E376294600920194D8
:102960003922134807F06CFD08B172B6FEE72BAAB6
:102970001546154B03F128061446186859680833A4
:1029800003C4B3422246F7D11B8800212380E023F1
:102990000195009339222A23054807F051FD01468D
:1029A000A0B172B6FEE700BF70D9042000680140F4
:1029B00020D90420000C02422CAA030848AA0308CC
:1029C00077AA03080607040599AA030803AB019335
:1029D000B6234D4C00932088A278ADF80C008DF8FA
:1029E0000E2003233922494807F02AFD014608B189
:1029F00072B6FEE70090BD231522444807F00FFD94
:102A000008B172B6FEE74CAA1646E31C2B341546F5
:102A100018685968083303C5A3422A46F7D11988B4
:102A20009B782980AB70C1230021009301962A2353
:102A30003922364807F004FD014608B172B6FEE7B8
:102A40000123152200933148BD2307F0E8FC08B1AB
:102A500072B6FEE736AA15462D4B03F1280614463A
:102A600018685968083303C4B3422246F7D11B885B
:102A700000212380C1230195009339222A23234872
:102A800007F0DEFC014608B172B6FEE7022315220C
:102A900000931E48BD2307F0C2FC08B172B6FEE7E2
:102AA00041AA15461B4B03F12806144618685968BD
:102AB000083303C4B3422246F7D11B880021238088
:102AC000C1230195009339222A23104807F0B8FC4E
:102AD000014608B172B6FEE70090BD2315220B48EF
:102AE00007F09DFC014608B172B6FEE70090112385
:102AF0000522064807F093FC08B172B6FEE778207D
:102B000005F012FA65B0F0BDC3AA030820D904206D
:102B1000F1AA03081BAB030800B59FB06022002197
:102B200006A836F06EFF18220021684636F069FFCD
:102B30004FF4403000F092FD08B172B6FEE74FF45A
:102B4000803311210122CDE906131023CDE90D2395
:102B50004FF080430F930223CDE91620CDE91432C4
:102B60005022CDE91C0006A8CDE91823CDE91A337F
:102B700001F03AF808B172B6FEE71F220323CDE94F
:102B80000200CDE9040004216846CDE9002300F0ED
:102B9000C3FE08B172B6FEE71FB05DF804FB00B5D6
:102BA000B9B0D822002102A836F02BFF002206235C
:102BB000CDE90023042303227D21CDE90B23082343
:102BC0000220CDE90D131823CDE90F034FF4A02304
:102BD0006846139305F092FA08B172B6FEE739B071
:102BE0005DF804FB80B5A6B005F064F9FFF794FF2B
:102BF000FFF7D5FF00F0A6FD022000F077FD0446A8
:102C000008B172B6FEE70146142219A836F0F9FEA3
:102C1000AB4B0321D3F88C20AA4842F01002C3F832
:102C20008C20D3F88C20012502F010020392039A25
:102C3000D3F88C20022742F00802C3F88C20D3F886
:102C40008C204FF4005602F008020492049AD3F844
:102C50008C2042F08002C3F88C20D3F88C2002F044
:102C600080020592059AD3F88C2042F48072C3F852
:102C70008C20D3F88C2002F480720692069AD3F846
:102C80008C2042F40072C3F88C20D3F88C2002F41C
:102C900000720792079AD3F88C2042F00402C3F81E
:102CA0008C20D3F88C2002F004020892089AD3F802
:102CB0008C2042F02002C3F88C20D3F88C2002F044
:102CC00020020992099AD3F88C2042F00102C3F83D
:102CD0008C20D3F88C30224603F001030A930A9B20
:102CE00003F06AFB01222021774803F065FB2246AE
:102CF0002021764803F060FB22460321724803F04E
:102D00005BFB22464FF4A041714803F055FB0323BF
:102D100019A96C48CDE91935CDE91B4303F0CCF96D
:102D2000232319A96848CDE919351B941C9703F092
:102D3000C3F9202319A96548CDE91935CDE91B440C
:102D400003F0BAF919A96348CDE919641B9403F09B
:102D5000B3F94FF4807C604B19A95A48CDE919C3E7
:102D60001B9503F0A9F94FF4A04319A95848CDE9E0
:102D70001935CDE91B4703F09FF922460A2113209C
:102D800003F054F8132003F085F8204607F050FDB7
:102D900008B172B6FEE707F05BFD08B172B6FEE758
:102DA0004E4B4F4A9880C3E905001A6018461D62D1
:102DB00007F002FD054608B172B6FEE70146102293
:102DC0000EA836F01EFE1C22294612A8CDE90B558E
:102DD0000D9536F016FE3422294619A836F011FE5C
:102DE0001223404C404F2046C4E900738B23A5605A
:102DF000C4E90335C4E9055504F062FB08B172B6B5
:102E0000FEE74FF480530EA920460E9304F0B6FC63
:102E100008B172B6FEE7204604F082FB08B172B634
:102E2000FEE7CDE90B000D900BA9204602F0E4FE71
:102E300008B172B6FEE760256423CDE91400CDE940
:102E400016001890042212A92046CDE9125304F06E
:102E5000FBFB08B172B6FEE74FF00073CDE9190035
:102E6000CDE91B00CDE91D06CDE91F002190CDE97C
:102E70002230CDE9240019A9204602F02FFF08B125
:102E800072B6FEE7174800F0BDFB4FF44033174819
:102E900017490126C0E900130023C0E90263C0E915
:102EA000063303F083FE08B172B6FEE71148124BF9
:102EB000036002F0FDFF054600B372B6FEE700BFF7
:102EC000000C024600100242000C024200200242A6
:102ED000001402420008024200002110FCD8042025
:102EE0000030024054D8042000340140A4DA042009
:102EF00000B0024048D8042000F002404FF004081F
:102F0000FFF716FBFFF7E0FB1822294619A836F059
:102F100078FDA84CA84B4FF08072C4E900381B2301
:102F20004FF00209C4E903234FF080532046CDE956
:102F30000E55A560C4E90595C4E90755C4E90965BE
:102F4000C4E90B35C4E90D55E56303F0AFFA08B1E8
:102F500072B6FEE74FF0011341F288321C9319A9B3
:102F600003F57F032046CDE919661B961D9303F0F8
:102F700059FB08B172B6FEE7CDE90E000EA9204656
:102F800003F0E6FD074608B172B6FEE7CDE9120090
:102F90004FF48061894803F01DFA4146884803F0E8
:102FA00019FA4946864803F015FA4FF480718348B0
:102FB00003F010FA4FF40071804803F00BFA8021FF
:102FC0007E4803F007FA40217C4803F003FA4946A3
:102FD0007C4803F0FFF941467A4803F0FBF90821E9
:102FE000784803F0F7F97748314603F0F3F9764D66
:102FF000236828462B606368C5E90137E368EB6006
:103000002369013B2B6163696B61A369AB61E36970
:10301000EB61236A2B62636A013B6B62A36AAB625A
:10302000E36AEB62236B2B63636B6B63A36BAB6332
:10303000E36BEB6301F0B8FB08B172B6FEE712A9CF
:10304000284601F0BBFE08B172B6FEE7139B12A939
:103050005B082846139301F07FFE024608B172B662
:10306000FEE70146284609F0DBFF024608B172B6CA
:10307000FEE7014628460AF002F808B172B6FEE7FC
:10308000642004F051FF00224F48114609F02FFE42
:10309000044608B172B6FEE7282004F045FF224638
:1030A0002146494809F0E0FE024608B172B6FEE743
:1030B00006230146009344484FF4407309F053FF40
:1030C000024608B172B6FEE701463F4809F0CCFE61
:1030D000034608B172B6FEE702220146009202469C
:1030E000394809F040FF08B172B6FEE7282004F025
:1030F0001BFF0121344809F068FE08B172B6FEE7F3
:103100000C238DF86530C02320228DF866304023D3
:1031100019A98DF864208DF867008DF868008DF886
:1031200069300AF02FFC50B1284836F0E5FF2848F6
:1031300036F0E2FF274837F053F872B6FEE70AF0A0
:1031400021FB50B1244836F0D7FF214836F0D4FF98
:10315000204837F045F872B6FEE74FF000451F4CA7
:103160001F4B2046C4E9003502F0ECFE08B172B6F0
:10317000FEE7204602F0D4FE204602F019FF19486F
:10318000194BC0E9003502F0DDFE08B172B6FEE76A
:10319000144802F0C5FE134802F00AFF07F052FC83
:1031A00007F04FFC09F0BEFAFFF75CF909F0D0FA1E
:1031B000FEE700BFA0D8042000140D420014024214
:1031C0000000024200080242E8D7042021BC0308A4
:1031D00044BC03085CBC03085EBC030878DA042026
:1031E0000014034044D90420001803400268034B34
:1031F0009A4201D104F086BE704700BF0010004023
:1032000072B6FEE7FEE7FEE7FEE7FEE7FEE7704781
:103210004FF4807003F00CB9014803F0CCBF00BF3D
:103220009CD70420014803F003BD00BFA4DA0420AA
:10323000014802F059BE00BF48D80420014802F0FE
:1032400066BE00BF48D80420014804F043BD00BF5B
:1032500070D90420FFF7F8BF0A4B0F21D3F8942050
:103260006FF0010042F00402C3F894200022D3F86A
:10327000943082B003F004030193019B02B002F08A
:10328000D5BD00BF000C02460268094B82B09A42CD
:103290000CD1084BD3F8882042F48052C3F8882020
:1032A000D3F8883003F480530193019B02B0704738
:1032B00000300240000C02460368124A82B093427A
:1032C0000ED1114BD3F8882042F08042C3F88820F9
:1032D000D3F8883003F080430093009B02B070471E
:1032E0000A4A9342FAD1084BD3F8882042F40012DC
:1032F000C3F88820D3F8883003F400130193019BAE
:10330000ECE700BF00140340000C02460018034025
:1033100007B50F4B02689A4217D10E4B0721D3F81D
:103320008820762042F48022C3F88820D3F88830A1
:10333000002203F480230193019B02F077FD7620A5
:1033400003B05DF804EB02F0A5BD03B05DF804FB2B
:1033500000B00240000C02460268094B82B09A425B
:103360000CD1084BD3F8A42042F00062C3F8A4208B
:10337000D3F8A43003F000630193019B02B07047BF
:10338000006C0140000C02461FB5204B02689A42B7
:1033900039D11F4C0022D4F88830072143F4801320
:1033A000C4F88830D4F88830842003F48013019363
:1033B000019BD4F8883043F40013C4F88830D4F863
:1033C000883003F400130293029B02F02FFD842047
:1033D00002F060FD00220721852002F027FD8520F4
:1033E00002F058FDD4F8A8300A4A43F00203C4F8AA
:1033F000A830D4F8A83003F002030393039B53686A
:1034000023F08053536004B010BD00BF00F00240B1
:10341000000C0246000400467047704707B5134B86
:1034200002689A421FD1124B0721D3F8A4208720AB
:1034300042F08062C3F8A420D3F8A430002203F045
:1034400080630193019B02F0F1FC872002F022FDD2
:1034500000220721882002F0E9FC882003B05DF8F3
:1034600004EB02F017BD03B05DF804FB00680140F7
:10347000000C02461422F0B50446C3B000210DEB47
:10348000020036F0BEFAE02200210AA836F0B9FAAE
:1034900022684B4B9A4240F090804FF080620023AC
:1034A000CDE90A234FF44013399301235D21CDE97F
:1034B0000C3304220223CDE90E13CDE910234FF47F
:1034C00000330AA8149304F019FE08B1FFF798FE20
:1034D0003C4B0324D3F88C20022642F40012C3F89C
:1034E0008C20D3F88C20002502F400120092009A60
:1034F000D3F8902005A942F01002C3F89020D3F829
:103500009020314802F010020192019AD3F88C20E9
:103510000A2742F02002C3F88C20D3F88C2002F056
:1035200020020292029AD3F88C2042F00402C3F8DF
:103530008C20D3F88C2002F004020392039AD3F873
:103540008C2042F00102C3F88C20D3F88C30CDE9F6
:10355000075403F001030493049B4FF48063099420
:10356000CDE9053602F0A8FD4FF4707305A91648A1
:10357000CDE90536CDE90754099702F09DFD0E23EC
:1035800005A91248CDE90536CDE90754099702F09F
:1035900093FD062305A90E48CDE90536CDE907546C
:1035A000099702F089FD012305A90848CDE90536F0
:1035B000CDE90754099402F07FFD43B0F0BD00BF90
:1035C00000140D42000C02460014024200080242A0
:1035D000000002420268094B82B09A420CD1084BAB
:1035E000D3F8A42042F40052C3F8A420D3F8A430A6
:1035F00003F400530193019B02B070470034014073
:10360000000C024610B5044686B01422002101A821
:1036100036F0F7F922680E4B9A4217D10D4B01A9EB
:10362000D3F88C200C4842F48072C3F88C20D3F875
:103630008C30402203F480730093009B0223CDE979
:10364000012304930323059302F036FD06B010BD59
:1036500000340140000C0246002002421D4BDA6B90
:1036600002F44032824208D1B2F5803F03D9DA68D1
:1036700042F48022DA60002070474FF47A71DA68F1
:10368000B0F5803F22F4E02288BF42F4802210434C
:10369000D860114B1A683223B2FBF1F25343B3FBEB
:1036A000F1F301331A460B49C868000404D40AB97F
:1036B00003207047013AF7E7002AF9D0054AD16B99
:1036C000090403D4002BF3D0013BF8E7002BD2D13F
:1036D000EEE700BF0008024610000020024BD86B46
:1036E00000F44030704700BF000802464FF47A7182
:1036F000124B1A683223B2FBF1F25343B3FBF1F3DE
:103700000F4A0133916850B921F002019160D16BE9
:1037100088070ED50BB903207047013BF7E741F04E
:1037200002019160D16B890703D4002BF3D0013BD8
:10373000F8E7002BEFD00020704700BF10000020FA
:1037400000080246024AD36A43F00103D36270477D
:103750000008024637B52B4D0446D5F894305B0778
:1037600018D5FFF7BBFF20F48033B3F5003F26D117
:10377000B4F1805F2CBF00200120234A136823F09E
:103780000F0303431360136803F00F03181A18BFE5
:1037900001201BE0D5F8943043F00403C5F89430C1
:1037A000D5F8943003F004030193019BFFF796FFD3
:1037B000D5F8943023F00403C5F89430D3E7B4F17E
:1037C000805F05D2B0F5803F15D0012003B030BD39
:1037D000B4F1005F06D980B9B4F1405F8CBF00201E
:1037E0000120CAE7B4F1805F09D1B0F5803F0CBF7A
:1037F00001200220C1E70320BFE70020BDE7012030
:10380000BBE700BF000C02460020024030B53E4B33
:10381000DA69996A12F00C0205D00C2A42D101F043
:10382000030101293ED19968090254BFD3F8F4304D
:103830009B68364954BFC3F303331B0F51F8230071
:10384000002A5BD000230C2A5BD12F49B7EE006A17
:103850008C6A8B6A8A6AC3F30323013307EE903ABA
:103860008D6BC2F30013C5F3CC056B43F8EEE76A2A
:1038700007EE903A04F00303022BFAEEE97A1DD02A
:10388000032B1BD04B6BC3F3080307EE103AB8EEC3
:10389000C77A77EE277A07EE100A77EE867AB8EEC7
:1038A000476A18E0DB6903F00C03042B04D0082AF4
:1038B00025D000230020C6E7154BFBE74B6BC3F375
:1038C000080307EE103AB8EEC77A77EE277A77EE5C
:1038D000867A9FED106A86EE267A0B4B67EE877A22
:1038E0005B6BC3F30663013307EE103AB8EEC77A99
:1038F000C7EE876AFCEEE67A17EE900A30BD044800
:10390000FCE71846FAE700BF000C024684BB030838
:103910000024F4000024744B2DE9F3410E460446C4
:1039200018B9012002B0BDE8F0819F4A136803F086
:103930000F038B4275D32368DA067ED423681B07F6
:103940000DD59A4920690A6A120902F07002904264
:1039500081BF0B6A23F4E06343EA00130B62236820
:103960005F070BD5914AE068116A01F07001884247
:1039700081BF136A23F070030343136223689D071A
:103980000BD58A4AA068116A01F00F01884281BFF5
:10399000136A23F00F03034313622368D80759D433
:1039A0002368990700F1D9807F4A136803F00F0359
:1039B000B34200F2DF802368590700F1E7802368F3
:1039C0001A070DD5794920690A6A120902F07002B6
:1039D00090423FBF0B6A23F4E06343EA00130B629B
:1039E0002368DB060BD5714A6069516A01F07001EA
:1039F00088423FBF536A23F0700303435362FFF7CB
:103A000005FF6A4B6A4A1B6A03F00F03D35CD84078
:103A1000684B1860684B186802B0BDE8F041FEF7CB
:103A20003DBD136823F00F030B431360136803F0CD
:103A30000F038B427FF475AF7DE75C4A6069516A82
:103A400001F07001884281BF536A23F07003034381
:103A5000536273E76268554B032A4CD1D3F8942024
:103A600052073BD40127D3F8942042F00402C3F854
:103A70009420D3F8943003F004030193019B04F0E5
:103A80004DFA4E4D8046EA68530329D4474B2FB177
:103A9000D3F8942022F00402C3F894201B6813F09A
:103AA000007F3FF43EAF414D6268EB6941F28838D8
:103AB00023F003031343EB6104F030FA6368074615
:103AC000032B25D1EB6903F00C030C2B3FF468AFFB
:103AD00004F024FAC01B4045F4D90AE00027CEE7E1
:103AE000EB685804D2D404F019FAA0EB08000228BD
:103AF000F6D9032016E7022A1B6802D113F4003F0F
:103B0000CFE712B913F0040FCBE713F4806FC8E7C7
:103B1000022B0BD1EB6903F00C03082B3FF440AFF1
:103B200004F0FCF9C01B4045F4D9E2E77BB9EB692E
:103B300013F00C0F3FF434AF04F0F0F9C01B404514
:103B4000F5D9D6E704F0EAF9C01B4045D1D8EB69B6
:103B500003F00C03042BF5D122E7144AA068116A84
:103B600001F00F0188423FBF136A23F00F030343A4
:103B7000136219E7136823F00F03334313601368CC
:103B800003F00F03B3427FF4CCAE14E7074AE068BA
:103B9000116A01F0700188423FBF136A23F070037D
:103BA000034313620BE700BF00200240000C0246F3
:103BB0006CBB03081000002018000020000802461B
:103BC00008B5FFF723FE054B054A1B6A03F00F03F8
:103BD000D35CD840034B186008BD00BF000C024600
:103BE0006CBB0308100000202DE9FF41044608B912
:103BF000012049E0A84BDE699F6A036806F00C06C5
:103C0000D80607F0030740F1A180E3691EB10C2E2E
:103C10007BD1012F79D1002BEAD09F4D606AAB6830
:103C2000190256BFD5F8F430AB681B0403F070439B
:103C3000984239D9B6B1AB6843F40003AB60AB68C6
:103C4000626A23F070431343AB60636A226AB3F184
:103C5000404F0CD2002B1ADAEB6823F4787343EA56
:103C6000421308E0FFF776FD0028E4D0C0E7EB68D8
:103C700023F01F031343EB60FFF7A2FF874B186885
:103C8000FEF70CFC002861D004B0BDE8F081B3F170
:103C9000804FEB682BBF23F4F84323F4782343EAE7
:103CA000822343EAC233E6E7AB6843F40003AB6028
:103CB000AB68626A23F070431343AB60636A226AA5
:103CC000B3F1404F0CD3EB6823F01F031343EB60B9
:103CD000002ED1D1606AFFF73DFD0028CCD087E7E8
:103CE000002B05DAEB6823F4787343EA4213EEE71E
:103CF000B3F1804FEB682BBF23F4F84323F4782310
:103D000043EA822343EAC233E1E7634D002B77D0D5
:103D10002B6843F001032B6004F000F980462B6808
:103D20005A074FD5AB6843F40003AB60AB68626AD7
:103D300023F070431343AB60636A226AB3F1404FD0
:103D400048D3EB6823F01F031343EB602368DD07C0
:103D500067D42368980700F1BF802368180740F1F3
:103D60003A814D4BD3F89420510700F1F38001269E
:103D7000D3F8942042F00402C3F89420D3F894308E
:103D800003F004030193019B454DAB6ADA0740F150
:103D9000E3806369404D002B40F0EF80D5F8F030B0
:103DA00023F0A053C5F8F03004F0B8F80746D5F872
:103DB000F0301B0140F1078104F0B0F8C01B05286A
:103DC000F5D905E004F0AAF8A0EB08000228A6D96E
:103DD000032059E7002B05DAEB6823F4787343EAF4
:103DE0004213B2E7B3F1804FEB6804D323F4F843F6
:103DF00043EA8223A9E723F4782343EAC233A4E702
:103E00002B6823F001032B6004F088F880462B68B0
:103E10005B079BD504F082F8A0EB08000228F6D9D6
:103E2000D6E7082E626803D00C2E04D1032F02D1EE
:103E3000002A8ED1DCE6B2F5803F174B15D11A6807
:103E400042F480321A606368002B36D004F066F8C2
:103E50008046114D2B6899033FF57BAF04F05EF867
:103E6000A0EB08006428F5D9B2E7B2F5A02F08D17D
:103E70001A6842F480221A601A6822F480121A60CA
:103E8000DDE7B2F5A81F1A680CD142F480221A604F
:103E90001A6842F48012F2E7000C02461800002073
:103EA0000008024622F480321A601A6822F4802246
:103EB0001A601A6822F48012C4E704F02FF88046D2
:103EC000B44D2B689A037FF544AF04F027F8A0EBBC
:103ED00008006428F5D97BE7042EE36803D00C2E94
:103EE0000DD1022F0BD1002B3FF482AEA94A2169DC
:103EF000136923F4F81343EA014313612DE7A54D39
:103F0000BBB12B6843F480732B6004F007F80646BE
:103F10002B685B0507D52B69226923F4F81343EA64
:103F200002432B6119E703F0F9FF801B0228EFD948
:103F30004EE72B6823F480732B6003F0EFFF0646F7
:103F40002B685F057FF509AF03F0E8FF801B0228AF
:103F5000F6D93DE7002617E7AB6A43F00103AB62F1
:103F600003F0DCFF0746AB6ADB073FF512AF03F057
:103F7000D5FFC01B0228F6D92AE7D5F8F030A16991
:103F800003F08052914210D003F04062B2F1006F12
:103F90003FF42EAE580148D47E4AA169D2F8F030E1
:103FA00023F080530B43C2F8F0307A4DD5F8F0304F
:103FB00043F08063C5F8F03003F0B0FF0746D5F852
:103FC000F0301A0144D536B1724AD2F8943023F059
:103FD0000403C2F8943023685D0740F186806D4B7E
:103FE000D3F89420500739D40126D3F8942042F016
:103FF0000402C3F89420D3F8943003F0040302932E
:10400000029B654DAB6AD9072AD5A268614B12F0B5
:10401000010F35D1D3F8F02022F00102C3F8F020CF
:10402000D3F8F02022F0040237E0D5F8F03023F086
:10403000A053C5F8F03003F071FF0746D5F8F03013
:104040001901A9D503F06AFFC01B0528F6D9BFE600
:1040500003F064FFC01B0528B1D9B9E60026D0E7FC
:10406000AB6A43F00103AB6203F058FF0746AB6A4B
:10407000DA07CAD403F052FFC01B0228F7D9A7E61B
:1040800012F0040FD3F8F0201EBF42F00402C3F870
:10409000F020D3F8F02042F00102C3F8F020A3682A
:1040A000002B4FD003F03AFF41F288380746394DD4
:1040B000D5F8F0309B0728D5A36813F0800FD5F80A
:1040C000F0302ED041F2883843F08003C5F8F0304C
:1040D000304DD5F8F03018051DD536B12D4AD2F83F
:1040E000943023F00403C2F894302368990655D421
:1040F00023681A0675D42368580600F19780A06BD0
:10410000002840F0E3800020BEE503F007FFC01B5D
:104110004045CDD95CE603F001FFC01B4045D8D92E
:1041200056E641F2883823F08003C5F8F030194D87
:10413000D5F8F0301905D0D503F0F0FEC01B40458E
:10414000F6D945E603F0EAFE41F288380746114DFC
:10415000D5F8F0309A0716D4D5F8F0301B06BCD548
:1041600041F28838D5F8F03023F08003C5F8F030FC
:10417000084DD5F8F0301805AFD503F0CFFEC01BC1
:104180004045F6D924E603F0C9FEC01B4045DFD9FF
:104190001EE600BF000C024600080246E36A9D4D81
:1041A0007BB12B6843F480532B6003F0B7FE0646C7
:1041B0002B689B049CD403F0B1FE801B0228F7D926
:1041C00006E62B6823F480532B6003F0A7FE064617
:1041D0002B689F048CD503F0A1FE801B0228F7D921
:1041E000F6E5236B8B4D83B12B6843F480432B6042
:1041F00003F094FE06462B6819043FF57CAF03F0EC
:104200008DFE801B0228F6D9E2E52B6823F480435B
:104210002B6003F083FE06462B681A047FF56BAF14
:1042200003F07CFE801B0228F6D9D1E5636B794D43
:10423000002B3AD0AB6843F40003AB60AB68A26AD2
:1042400023F070631343AB60636A226AB3F1404F9B
:1042500016D3EB6823F01F031343EB606D4D2B68FF
:1042600043F010032B6003F059FE06462B689B06B3
:104270003FF545AF03F052FE801B0228F6D9A7E5B3
:10428000002B05DAEB6823F4787343EA4213E4E782
:10429000B3F1804FEB682BBF23F4F84323F478236A
:1042A00043EA822343EAC233D7E72B6823F01003A3
:1042B0002B6003F033FE06462B689F067FF51FAF89
:1042C00003F02CFE801B0228F6D981E5514DEB69E5
:1042D00003F00C030C2B00F0A3802B68022823F0C2
:1042E00080732B6040F0818003F018FE0646296839
:1042F00011F0007173D1D5F8943058070CD4012116
:10430000D5F8943043F00403C5F89430D5F89430D0
:1043100003F004030393039B3F4DEE68EB6823F423
:104320008023EB603B4B676C986AE26B20F47F4024
:104330003A4320F003000243206C013842EA002295
:104340009A62A26C5F6B3548013A3840C2F30802AA
:104350000243E06C0138400280B20243206D013814
:10436000000400F4FE000243606D0138000600F016
:10437000FE4002435A639A6A22F010029A62E26D8A
:10438000D2009A639A6A42F010029A629A6AA06D09
:1043900022F00C0202439A62720342BFEA6842F4BE
:1043A0008022EA6029B1D3F8942022F00402C3F8F5
:1043B00094209A6A174C42F480229A621A6842F05A
:1043C00080721A6003F0AAFD054623689B013FF541
:1043D0009AAE03F0A3FD401B0228F6D9F8E403F0DF
:1043E0009DFD801B022882D9F2E403F097FD04466C
:1043F000286810F0007006D1AB6A23F4E02323F0A4
:104400000303AB6240E403F089FD001B0228EFD9EF
:10441000DEE400BF000C0246000802460000808077
:104420000128AA6A6B6B3FF42FACE06B02F003012A
:1044300081427FF4DDAB216CC2F303200139884255
:104440007FF4D6AB616C02F470428A427FF4D0AB49
:10445000A26CC3F30801013A91427FF4C9ABE26C4C
:10446000C3F34621013A91427FF4C2AB226DC3F3FC
:104470000641013A91427FF4BBAB626DC3F3066320
:10448000013A93427FF4B4AB0D4BE16D9A6BC2F3EA
:10449000CC028A423FF437AE9A6A22F010029A6246
:1044A00003F03CFD054603F039FDA842FBD0E26D68
:1044B000034BD2009A639A6A42F010029A6222E693
:1044C000000C024608B5FFF77BFB044B044A1B6A4D
:1044D000C3F30213D35CD84008BD00BF000C0246F2
:1044E0007CBB030808B5FFF76BFB044B044A1B6A4F
:1044F000C3F30223D35CD84008BD00BF000C0246C2
:104500007CBB030808B5FFF75BFB044B044A5B6AFE
:10451000C3F30213D35CD84008BD00BF000C0246B1
:104520007CBB03081F2303600D4BDA6902F0030212
:1045300042601A6A02F00F0282601A6A02F0700288
:10454000C2601A6A120902F0700202615B6A03F02B
:1045500070034361034B1B6803F00F030B6070474C
:10456000000C0246002002402DE9F0410268136869
:1045700023F0405313600368754A93420DD002F153
:104580008052934209D002F1704202F58052934268
:1045900003D002F18052934257D182682AB91A6837
:1045A00022F080024C6822431A600A680368022ADB
:1045B0005FD103F5C07203F5C47403F5C87503F544
:1045C000D073D1E912673E431660CE6A5EB18E6A3F
:1045D0001E604F6BCB6A16683B430F6B26F47C164C
:1045E0003B433343136023684E6C23F01F03334374
:1045F00023608B6B2BB10B681BB9CB6B0468013B41
:104600002364CB68CF69002B00F08680D1E904C613
:104610008C6B002F5AD0D1E908E83B431768002C77
:104620003BD0344344EA0C0444EA08040E6C44EAE8
:104630000E0434432343474C3C40234313608B68B0
:104640002B6003688A699A6450E0434A934203D01E
:1046500002F18052934206D18268002AA5D11A68DD
:1046600022F040429EE7836D43F0080383650120FA
:104670003DE0032A03BF03F5A07203F5A47403F51C
:10468000A87503F580721BBF03F5847403F5887564
:1046900003F5B07303F5907393E74CEA060444EA1C
:1046A000080444EA0E0427F47C5E23432EF03F0EF8
:1046B00043EA0E031360C36AB3F1805FBFD14B6955
:1046C000082BBCD1136843F00063B7E78CB12343D8
:1046D000106833430C6C43EA0C0320F070602343F2
:1046E00020F03F00034313608B682B600020BDE87F
:1046F000F0811468334343EA0C0324F03F0423435E
:104700001360C36AB3F1805FEED14B69082BEBD124
:10471000136843F00063E6E7C7B1D1E9086C8B6B1F
:10472000156863B13B430C6C43EA0C0333432343EA
:1047300025F0706424F47C542343136081E747EA36
:104740000C03334325F47C573B43F6E708238DE7FE
:1047500000140D42C0C0FFF000340D422DE9F041BD
:1047600004460F4616469846069D21680A6A3A4254
:1047700014BF01220022B24201D1002011E06B1CC3
:10478000F4D003F0CBFBA0EB0800A84201D8002D29
:10479000EBD14FF4007303206365A36D43F0010375
:1047A000A365BDE8F081000073B5044603F0B6FBD5
:1047B0000646002C00F0B3800025A565636D002B34
:1047C00040F09E802046FEF727FE41F28833E269E2
:1047D000E365E368216813432269886843EA02437A
:1047E000504A024013436269013A43EA02238B6054
:1047F00023684D498B420CD04C4A934209D002F1B8
:10480000704202F58052934203D002F180529342EB
:1048100005D19A68606B22F0080202439A60226810
:10482000206AD36823F4E0230343D3602268206B1B
:10483000136923F4F81343EA0043136123688B429E
:104840000CD03A4A934209D002F1704202F58052EC
:10485000934203D002F18052934205D11A69A16BB1
:1048600022F0FF020A431A612368E26B20465A6174
:10487000216862680B68013A23F47C5343EA0223FF
:104880000B60E36D0022009320213346FFF766FFA3
:104890000546002834D12268616AD36823F0FF03FB
:1048A0000B43D3602368224A93422CD002F18052FA
:1048B000934228D02268A168136823F040030B4379
:1048C00013602168D4E90A30D1F80821034322F0AB
:1048D000A0421343C1F808312268136843F0010372
:1048E0001360A369022B04D12268936843F002038A
:1048F0009360E368B3F1806F0CBF0123022363650B
:10490000284602B070BDE36D00220093202133469B
:104910002046FFF723FF0028CCD00546F0E701250D
:10492000EEE700BFFCC0E0F800140D4200140D5289
:1049300000340D4210B5044670B10268136823F0CC
:10494000010313600268936823F002039360FEF78B
:1049500064FD0020606510BD0120FCE7F7B504464A
:104960000D46174603F0DAFAA16806462368414A65
:10497000F1B993421CD040498B4219D001F17041EA
:1049800001F580518B4213D001F180518B420FD041
:1049900001F1704101F580518B4209D001F1805144
:1049A0008B4205D0A36D43F00803A365012041E0CD
:1049B000934216D0304A934213D002F1704202F56E
:1049C000805293420DD002F18052934209D002F1FD
:1049D000704202F58052934203D002F1805293421A
:1049E000E0D1636D022B05D1E368B3F1806F07D18D
:1049F0001023DAE7142B1FD12B68023B012BF7D8C9
:104A000000973346002220212046FFF7A7FE70BB07
:104A1000A06529462046FFF7A7FD58B9AB6B9BB9A7
:104A200033460122009702212046FFF797FE02221B
:104A300023685A6203B0F0BD242BD9D12B6823F030
:104A40000203012BD4D1DBE72B680BB9042305E06B
:104A5000012B05D1636D242BF8D014236365E9E79E
:104A6000022BE7D1636D142BF0D02423F6E702204C
:104A7000E0E700BF00140D4200140D522DE9F34190
:104A800004468846174603F049FA0646B8F1000F77
:104A900003D10823A36501202FE0636D042B2FD1E0
:104AA00025682B6CC4F840800133A364A36C636455
:104AB0002B6823F040532B600097334601220421DA
:104AC0002046FFF74BFEC0B9236C1B7885F85030A9
:104AD000236C01332364A36C013BA364A36C002B00
:104AE000EAD100973346012202212046FFF736FE25
:104AF00018B9022322685362636502B0BDE8F081F1
:104B00001023C7E72DE9F34104468846174603F012
:104B100005FA25680646AA6CD5F81011B8F1000F01
:104B200003D10823A365012036E0636D042B3ED139
:104B30002B6CC4F840800133A364A36C63642B68BE
:104B400023F0405343F080532B60E368B3F1806F50
:104B5000236824D19A640097334601220621204617
:104B6000FFF7FCFDC0B995F85020236C1A70236C38
:104B700001332364A36C013BA364A36C002BEAD133
:104B800000973346012202212046FFF7E7FD18B9BE
:104B9000022322685362636502B0BDE8F081D3F856
:104BA000000110F4E06FD5D1C3F81011D3E7102342
:104BB000B8E72DE9F74304468946164603F0AEF9F7
:104BC000236805469F6CD3F81081636D042B45D193
:104BD000D9F80C30B3F5800F40D10346009600227F
:104BE00020212046FFF7BAFD00283BD12368D9F8E1
:104BF0000020C3F888202368D9F80420C3F8802057
:104C00002368D9F81020C3F890202168D9E9023030
:104C10000A68034343F0005322F0435213430B60EE
:104C2000E368B3F1806F236810D19F6400962B4630
:104C3000012208212046FFF791FD20B908222368B0
:104C40005A620223636503B0BDE8F083D3F8002104
:104C500012F4E06FE9D1C3F81081E7E710230120D7
:104C6000A365F0E70220EEE737B504460D4603F0F2
:104C700055F9626D0346042A25D1E26D2021009288
:104C800020460022FFF76AFDD8B9882363652B68A8
:104C9000082B0BD123686A68C3F8302110222368DF
:104CA0005A622268136843F48013136021682B68EA
:104CB0000A6843F0405322F0405222F008021343A6
:104CC0000B6003B030BD10230120A365F9E773B575
:104CD000044603F023F9636D054613F00C0F37D03B
:104CE0002368186810F004000FD01A6822F004023C
:104CF0001A60E06C00F0E0FE08B10423A365206DAB
:104D000000F0DAFE08B10423A36523681A6A92064C
:104D10001BD51A68022142F002021A60E36D0122DB
:104D2000009320462B46FFF719FD60B90226236841
:104D300002465E62E36D2021009320462B46FFF77A
:104D40000DFD00B9666502B070BD02236365FAE728
:104D500010230120A365F6E738B50268044693687E
:104D600043F0020393600823104A436503689342AB
:104D700011D10F480368002543F00103036001F0DF
:104D80004AF92046FFF7A3FF22682846936823F0DC
:104D90000203936038BD074A934201D10648E9E710
:104DA000836D012543F008038365EAE700140D4293
:104DB00000F00C4200240D4200F40C4270B5026871
:104DC0000446936843F0020393600823144A436542
:104DD0000368934218D1134D2B68284643F0010312
:104DE0002B6001F027F9061C18BF01262B6823F061
:104DF00001032B602046FFF76AFF22683046936864
:104E000023F00203936070BD074A934201D1074D1E
:104E1000E2E7836D012643F008038365EAE700BFFC
:104E200000140D4200F00C4200240D4200F40C422C
:104E300030B5024603682148834203D000F1805018
:104E4000834238D1506D10F0080030D10C68022C2C
:104E500011D0032C1DD0012C2DD1D1E90125D3F87F
:104E6000184242EA054224F4F81121F07F010A4376
:104E7000C3F8182230BDD3F82042D1E9012524F42B
:104E8000F81142EA054221F07F010A43C3F82022CB
:104E9000F0E7D3F82842D1E9012524F4F81142EAD9
:104EA000054221F07F010A43C3F82822E2E71023DC
:104EB00093650120DEE70823FAE700BF00340D42C6
:104EC00003689A69910744BF00229A6203689A694D
:104ED000D2075EBF9A6942F001029A6170470000F2
:104EE00030B5039D04682B4343EA0243064A6068D9
:104EF000C1F309010B4342EA555223F0004320EA73
:104F000002000343636030BDFF63FF032DE9F041FE
:104F1000036805469C690F4614F01004904671D052
:104F2000002410222646DA612B689A69900664D420
:104F3000002E38D0012044F004042A689369D90572
:104F400041BF4FF4807144F00104D16101205A0542
:104F500006D54FF4806101202A6844F00804D1612D
:104F60009B0551D54FF400722B6844F00204DA61BE
:104F70002846FFF7A5FF2A680120536823F0FF7336
:104F800023F48B3323F4FF7323F0010353606B6C22
:104F90001C4320236C6485F84130002385F842309F
:104FA00085F8403032E07A1CBFD002F0B7FFA0EBAA
:104FB0000800B84201D8002FB6D12B68596895F87F
:104FC00042209869D2B200040AD5490408D4202AA4
:104FD00006D05A6842F480425A6002F09FFF804631
:104FE0002B689B699B069FD402F098FFA0EB0800FA
:104FF0001928F5D92024012696E7002E9AD12022DF
:10500000DA6197E7204698E70028B1D1BDE8F08142
:1050100070B504460D46164623689B695B070ED49F
:10502000324629462046FFF771FF38BB2268936954
:10503000980625D59369590703D5238D0BB1002018
:1050400070BD936913F010031EBF1023D3610423B6
:10505000202263642368DA6121684B6823F0FF73C0
:1050600023F48B3323F4FF7323F001034B600023FD
:1050700084F8412084F8423084F840300120DFE792
:1050800002F04CFF801BA84201D8002DC4D1236838
:105090009B6913F00403BFD1626C42F0200262648A
:1050A000202284F84120E7E770B504460D461646F5
:1050B00023689B699B0701D5002070BD32462946B5
:1050C0002046FFF723FFC0B96A1CF1D002F026FF8B
:1050D000801BA84201D8002DEAD123689B6913F0F8
:1050E0000203E5D1626C84F8403042F02002626431
:1050F000202284F8412084F842300120DDE770B599
:1051000004460D46164623689B699B0601D5002080
:1051100070BD324629462046FFF7F8FEB0B902F0CE
:10512000FDFE801BA84201D8002DECD123689B69AD
:1051300013F02003E7D1626C84F8403042F0200283
:105140006264202284F8412084F842300120DFE7A5
:105150002DE9F8430446884691461D46089F22687B
:10516000936938EA03030CBF012600264E4501D09F
:1051700000201EE06B1CF3D002F0D0FEC01BA84242
:1051800001D8002DEBD123689B6938EA03030CBFDB
:1051900001230023B342E2D1636C012043F02003DA
:1051A0006364202384F84130002384F8423084F87B
:1051B0004030BDE8F883704710B50446002855D04C
:1051C00090F8413003F0FF021BB980F84020FFF750
:1051D000F2FF2423226884F841301368002023F072
:1051E00001031360D4E9002323F070631361226884
:1051F000936823F400439360E3682268012BA3685B
:105200000CBF43F4004343F4044393602368E26813
:10521000022A5A680CBF42F4006222F400625A600B
:105220002268536843F0007343F4004353602268DC
:10523000D36823F40043D360D4E904310B43A1695C
:10524000226843EA0123D3602268D4E907310B4383
:1052500013602268136843F0010313602023606425
:1052600084F84130206384F8420010BD0120FCE73F
:10527000704710B5044698B12423026880F8413085
:10528000136823F001031360FFF7F2FF002060644E
:1052900084F8400084F84100206384F8420010BD87
:1052A0000120FCE72DE9F743984690F84130044689
:1052B000202B0E46914640F0848090F84030012B20
:1052C0007FD0012780F8407002F028FE19230546A0
:1052D00000903A464FF400412046FFF739FF18B1DD
:1052E000012003B0BDE8F083222384F8413010236D
:1052F00084F842306064A4F82A80638DC4F8249056
:10530000FF2B6063304B27D9FF22009322854FF09B
:10531000807331462046FFF7E3FD638D2A469BB23A
:105320000A99204603BBFFF7EAFE0028D8D12022C5
:105330002368DA6121684B6823F0FF7323F48B3311
:1053400023F4FF7323F001034B6084F8412084F8B9
:10535000400084F84200C4E7628D009392B2228537
:105360004FF00073D2B2D4E7FFF752FE0028B7D156
:1053700023685A6A636A1A70636A228D0133636212
:10538000638D013A013B9BB26385638D92B29BB200
:105390002285002BC1D0002ABFD100950A9B802115
:1053A0002046FFF7D5FE00289AD1638DFF2B03D945
:1053B000FF2200902285AAE7628D009092B222859A
:1053C000CEE702208DE700BF002400802DE9F74FD3
:1053D000984690F841300446202B0F461646DDF8DB
:1053E00030A0BDF8349040F0C780BAF1000F02D071
:1053F000B9F1000F06D14FF400736364012003B0CC
:10540000BDE8F08F90F84030012B00F0B5804FF0F0
:10541000010B80F840B002F081FD19230546009091
:105420005A464FF400412046FFF792FE0028E5D18E
:10543000212384F84130402384F842304F4B60648C
:10544000606300935FFA88F239462046C4F824A0CE
:10545000A4F82A904FF08073FFF742FD2A460E9978
:105460002046FFF721FE10BBB8F1010F236814D1CD
:10547000F6B29E620E9B0095002280212046FFF727
:1054800067FEA0B9638DFF2B15D8628D009092B294
:1054900022854FF00073D2B212E0320A9A620E995E
:1054A0002A462046FFF700FE08B92368E0E70023FC
:1054B00084F84030A2E7FF224FF0807322850090ED
:1054C00039462046FFF70CFD2A460E992046FFF785
:1054D000EBFD002892D1626A236812789A62636AAF
:1054E000228D01336362638D013A013B9BB2638578
:1054F000638D92B29BB22285ABB1A2B900950E9B8F
:1055000080212046FFF724FE00287FF477AF638DCB
:10551000FF2B29D9FF224FF0807322850090394656
:105520002046FFF7DDFC638D9BB2002BCCD12A46D1
:105530000E992046FFF7E3FD00287FF45FAF20229D
:105540002368DA6121684B6823F0FF7323F48B33FF
:1055500023F4FF7323F001034B6084F8412084F8A7
:10556000400084F842004AE7628D009092B22285A2
:105570004FF00073D2B2D2E7022040E70020008053
:105580002DE9F74F984690F841300446202B0F46FE
:105590001646DDF830A0BDF8349040F0C980BAF16D
:1055A000000F02D0B9F1000F06D14FF4007363640D
:1055B000012003B0BDE8F08F90F84030012B00F0DF
:1055C000B7804FF0010B80F840B002F0A7FC192320
:1055D000009005465A464FF400412046FFF7B8FDBB
:1055E00003460028E4D1222284F84120402284F896
:1055F0004220504A60646063009239465FFA88F244
:105600002046C4F824A0A4F82A90FFF769FC2A4693
:105610000E992046FFF748FD18BBB8F1010F23682B
:1056200015D1F6B29E620E9B0095002240212046C5
:10563000FFF78EFDA8B9638DFF2B3F4B15D8628D08
:10564000009392B222854FF00073D2B212E0320A78
:105650009A620E992A462046FFF726FD08B923686C
:10566000DFE7002384F84030A2E7FF2200934FF0E9
:105670008073228539462046FFF732FC00950E9B49
:10568000002204212046FFF763FD002890D1236803
:105690005A6A636A1A70636A228D01336362638D8A
:1056A000013A013B9BB26385638D92B29BB2228526
:1056B000ABB1A2B900950E9B80212046FFF748FDB3
:1056C00000287FF475AF638DFF2B29D9FF224FF09F
:1056D00080732285009039462046FFF701FC638DD8
:1056E0009BB2002BCAD12A460E992046FFF707FD30
:1056F00000287FF45DAF20222368DA6121684B68BF
:1057000023F0FF7323F48B3323F4FF7323F001039F
:105710004B6084F8412084F8400084F8420048E758
:10572000628D009092B222854FF00073D2B2D2E720
:1057300002203EE7002000800024008090F8410015
:105740007047406C7047000038B5044602F0E6FB35
:105750000546002C00F09F81002384F84C30022382
:10576000226884F85430536943F006035361226879
:105770005369DB0700F184815369216A23F44303F1
:105780000B435361E3696269C74D1A432369C748F4
:105790001A43A3691A432368AB4200F08780C449C7
:1057A0008B4200F0838001F1704180318B427DD0CB
:1057B00001F180518B4279D001F1704180318B42EF
:1057C00074D001F180518B4270D001F17041803171
:1057D0008B426BD001F180518B4267D001F1704157
:1057E00080318B4262D001F180518B425ED001F159
:1057F000704180318B4259D001F180518B4255D09C
:1058000001F1704180318B4250D001F180518B42C7
:105810004CD001F1704180318B4247D001F1805171
:105820008B4243D001F1704180318B423ED001F177
:1058300080518B423AD001F1704180318B4235D09A
:1058400001F180518B4231D001F1704180318B42A6
:105850002CD001F180518B4228D001F17041803170
:105860008B4223D001F180518B421FD083421DD047
:1058700080318B421AD001F1704180318B4215D0BA
:1058800001F180518B4211D001F1704180318B4286
:105890000CD001F180518B4208D001F17041803170
:1058A0008B4203D001F180518B420DD1A16A0139A5
:1058B000090501F07C710A43E16A1143626A013A09
:1058C000120102F47C720A43196C01F080210A4330
:1058D0001A64216BA26863680A4303F07F0342EAFB
:1058E0000301E2682368B2F5806F40F0D680AB42D6
:1058F00000F087806E4A934200F0838002F170428C
:10590000803293427DD002F18052934279D002F1ED
:1059100070428032934274D002F18052934270D030
:1059200002F17042803293426BD002F18052934276
:1059300067D002F170428032934262D002F180520D
:1059400093425ED002F170428032934259D002F10C
:105950008052934255D002F170428032934250D02F
:1059600002F1805293424CD002F170428032934255
:1059700047D002F18052934243D002F1704280320C
:1059800093423ED002F1805293423AD002F17042EB
:105990008032934235D002F18052934231D002F1ED
:1059A0007042803293422CD002F18052934228D030
:1059B00002F170428032934223D002F1805293422E
:1059C0001FD083421DD0803293421AD002F1704220
:1059D0008032934215D002F18052934211D002F1ED
:1059E0007042803293420CD002F18052934208D030
:1059F00002F170428032934203D002F1805293420E
:105A000001D141F480615A6C22F0434222F47F12AA
:105A100022F4676222F00F020A435A6400222368CC
:105A20009A64236883421DD0224A93421AD002F11D
:105A300070428032934215D002F18052934211D0CD
:105A400002F17042803293420CD002F180529342B4
:105A500008D002F170428032934203D002F18052AA
:105A6000934203D100225A6523689A650020236877
:105A7000D867636BA0652365012384F8543038BD73
:105A800002F04CFA401B05287FF671AE1023A36587
:105A9000032384F854300120F1E7B2F5007F08BFFA
:105AA00041F40071AFE700BF5000024050060240D1
:105AB000500002505006025038B5044602F02EFA4B
:105AC000054644B194F85430022B06D02023A36538
:105AD000002384F84C30012024E02268536943F00D
